:0A0000000C9446000C9400000C94D0
:10000A0000000C9400000C9400000C9400000C9466
:10001A0000000C9400000C9400000C9400000C9456
:10002A0000000C9400000C9400000C9400000C9446
:10003A0000000C9400000C9400000C9400000C9436
:10004A0000000C9400000C94000046310046320077
:10005A004633004634003700350038003000360099
:10006A0039003E00580001002D4E414E00494E46CF
:10007A00000080C0010060017000020064017C0081
:10008A000000F894EE27ECBBF1E0FBBFEBBFE5BF45
:10009A008DE0A2E0BB27ED938A95E9F780E094E032
:1000AA00A0E6ED930197E9F7EEE7F0E085919591E7
:1000BA00009761F0A591B59105901590BF01F001E7
:1000CA0005900D920197E1F7FB01F0CFEFE5EDBF47
:1000DA00E4E0EEBFC0E6D1E00C948100AA93E88187
:1000EA00E064E7B98BE18A95F1F7369A349BFECF43
:1000FA00349AE4B1F5B16AC1E0E0EABBEBBBE7BB15
:10010A00E8BBE4BBE5BBE1BBE2BBE3BFE2BFECBFDC
:10011A00EFBDEEBDEDBDECBDE7BDE6BDEBBDEABD95
:10012A00E9BDE8BDE2BDE5BDE4BDE3BDE9BFE5BFAC
:10013A00E4BFEAB9E0E8E8B9E0E4E7B9E3E8E6B938
:10014A00E0E0E0BFEDB9E6BFA0E10E94BF010E9476
:10015A00ED0118F40E94F20108F004C0A4E5B0E031
:10016A000E94AC010E94F70118F40E94F20108F003
:10017A0004C0A7E5B0E00E94AC010E94FC0118F49B
:10018A000E94F20108F004C0AAE5B0E00E94AC01A6
:10019A000E94010218F40E94F20108F004C0ADE5C1
:1001AA00B0E00E94AC010E94ED0118F40E94060220
:1001BA0008F004C0A5E5B0E00E94AC010E94F70176
:1001CA0018F40E94060208F004C0AEE5B0E00E94EE
:1001DA00AC010E94FC0118F40E94060208F004C057
:1001EA00A0E6B0E00E94AC010E94ED0118F40E9462
:1001FA000B0208F004C0A8E5B0E00E94AC010E941E
:10020A00F70118F40E940B0208F004C0A2E6B0E05D
:10021A000E94AC010E94FC0118F40E940B0208F033
:10022A0004C0A4E6B0E00E94AC010E94010218F4E6
:10023A000E940B0208F004C0A6E6B0E00E94AC01DE
:10024A000E94ED0118F40E94100208F004C0ABE508
:10025A00B0E00E94AC010E94F70118F40E9410025B
:10026A0008F004C0A8E6B0E00E94AC010E94FC01BC
:10027A0018F40E94100208F004C0AAE6B0E00E9436
:10028A00AC010E94010218F40E94100208F004C096
:10029A00ACE6B0E00E94AC010E94010218F40E9490
:1002AA00060208F004C0AEE6B0E00E94AC014FCFEF
:1002BA00FFCFAA93E5B3EF70AE2FE881E07FEA2B78
:1002CA00E5BB8DE08A95F1F7AA9A8DE08A95F1F758
:1002DA00AA988DE08A95F1F779C0AA93A881E9DFF7
:1002EA00E881E295E883A881E4DF85E88A95F1F759
:1002FA006DC0AA93E881F0E0EC59FE4FE081A98134
:10030A00AE0FEBDF7980688022960895A2E00E9402
:10031A001502ACE0E2DFA1E00E941502E0E06E2ED9
:10032A007E2E0895AA93A881AA3011F0791448F074
:10033A00E0E0EA936394A62DDCDFA881AA3009F4F1
:10034A0045C07394A89AA881C8DFA8983FC0BA93F9
:10035A00AA931A93E981FA813196E983FA8331974C
:10036A00E4911E2FE03019F0A12FDCDFF3CF1881C2
:10037A0023960895AA93E4B3E06FE4BBA29AA09AE5
:10038A00A19AAA98A898A9989880E881E058E09339
:10039A006601E881E054E0936701A4E1B0E00E94BD
:1003AA0023020E941B020E941B020E941B02A0E25F
:1003BA0080DF88EC90E00197F1F7A8E28EDFA4E0F5
:1003CA008CDFA5E88ADFA6E088DFA0DF2196089502
:1003DA00A0E00E94730035970895A7E00E94730079
:1003EA0035970895A1E00E94730035970895A2E019
:1003FA000E94730035970895A3E00E947300359711
:10040A000895A4E00E94730035970895A5E00E941C
:10041A00730035970895A6E00E94730035970895F2
:10042A000E947201A3E0B0E00C942302A0E30E94B0
:10043A005E0188EC90E00197F1F70895109639F083
:10044A0080ED97E00197F1F7A8951197C9F70895FC
:00000001FF
